{
  "contractName": "Escrow",
  "abi": [
    {
      "constant": true,
      "inputs": [
        {
          "name": "",
          "type": "address"
        },
        {
          "name": "",
          "type": "uint256"
        }
      ],
      "name": "activeVettingIndexListByUser",
      "outputs": [
        {
          "name": "",
          "type": "uint256"
        }
      ],
      "payable": false,
      "stateMutability": "view",
      "type": "function"
    },
    {
      "constant": false,
      "inputs": [
        {
          "name": "_claimer",
          "type": "address"
        }
      ],
      "name": "claim",
      "outputs": [],
      "payable": false,
      "stateMutability": "nonpayable",
      "type": "function"
    },
    {
      "constant": true,
      "inputs": [
        {
          "name": "",
          "type": "address"
        }
      ],
      "name": "credibility",
      "outputs": [
        {
          "name": "",
          "type": "uint256"
        }
      ],
      "payable": false,
      "stateMutability": "view",
      "type": "function"
    },
    {
      "constant": false,
      "inputs": [
        {
          "name": "_reviewer",
          "type": "address"
        }
      ],
      "name": "settle",
      "outputs": [],
      "payable": false,
      "stateMutability": "nonpayable",
      "type": "function"
    },
    {
      "constant": true,
      "inputs": [],
      "name": "storeRegistry",
      "outputs": [
        {
          "name": "",
          "type": "address"
        }
      ],
      "payable": false,
      "stateMutability": "view",
      "type": "function"
    },
    {
      "constant": false,
      "inputs": [
        {
          "name": "_store",
          "type": "address"
        },
        {
          "name": "_reviewer",
          "type": "address"
        },
        {
          "name": "_comment",
          "type": "string"
        },
        {
          "name": "_score",
          "type": "uint256"
        }
      ],
      "name": "noVettingReview",
      "outputs": [],
      "payable": false,
      "stateMutability": "nonpayable",
      "type": "function"
    },
    {
      "constant": true,
      "inputs": [
        {
          "name": "_reviewer",
          "type": "address"
        }
      ],
      "name": "noMaturedVetting",
      "outputs": [
        {
          "name": "",
          "type": "bool"
        }
      ],
      "payable": false,
      "stateMutability": "view",
      "type": "function"
    },
    {
      "constant": false,
      "inputs": [
        {
          "name": "_store",
          "type": "address"
        },
        {
          "name": "_voter",
          "type": "address"
        },
        {
          "name": "_reviewer",
          "type": "address"
        },
        {
          "name": "_is_upvote",
          "type": "bool"
        }
      ],
      "name": "vote",
      "outputs": [],
      "payable": false,
      "stateMutability": "nonpayable",
      "type": "function"
    },
    {
      "constant": true,
      "inputs": [
        {
          "name": "",
          "type": "address"
        },
        {
          "name": "",
          "type": "address"
        }
      ],
      "name": "vettingIndex",
      "outputs": [
        {
          "name": "",
          "type": "uint256"
        }
      ],
      "payable": false,
      "stateMutability": "view",
      "type": "function"
    },
    {
      "constant": true,
      "inputs": [
        {
          "name": "",
          "type": "address"
        }
      ],
      "name": "settlements",
      "outputs": [
        {
          "name": "",
          "type": "uint256"
        }
      ],
      "payable": false,
      "stateMutability": "view",
      "type": "function"
    },
    {
      "constant": false,
      "inputs": [
        {
          "name": "_store",
          "type": "address"
        },
        {
          "name": "_reviewer",
          "type": "address"
        },
        {
          "name": "_comment",
          "type": "string"
        },
        {
          "name": "_score",
          "type": "uint256"
        }
      ],
      "name": "review",
      "outputs": [],
      "payable": true,
      "stateMutability": "payable",
      "type": "function"
    },
    {
      "constant": true,
      "inputs": [
        {
          "name": "",
          "type": "uint256"
        }
      ],
      "name": "vettings",
      "outputs": [
        {
          "name": "store",
          "type": "address"
        },
        {
          "name": "reviewer",
          "type": "address"
        },
        {
          "name": "deposit",
          "type": "uint256"
        },
        {
          "name": "last_update",
          "type": "uint256"
        }
      ],
      "payable": false,
      "stateMutability": "view",
      "type": "function"
    },
    {
      "constant": true,
      "inputs": [
        {
          "name": "_registry",
          "type": "address"
        }
      ],
      "name": "getLength",
      "outputs": [
        {
          "name": "",
          "type": "uint256"
        }
      ],
      "payable": false,
      "stateMutability": "nonpayable",
      "type": "constructor"
    },
    {
      "inputs": [
        {
          "name": "_registry",
          "type": "address"
        }
      ],
      "payable": true,
      "stateMutability": "payable",
      "type": "fallback"
    }
  ],
  "bytecode": "0x606060405234156200001057600080fd5b604051602080620025cd8339810160405280805190602001909190505080600560006101000a81548173ffffffffffffffffffffffffffffffffffffffff021916908373ffffffffffffffffffffffffffffffffffffffff160217905550600480548091906001016200008491906200008c565b5050620001b0565b815481835581811511620000bc57600602816006028360005260206000209182019101620000bb9190620000c1565b5b505050565b6200016291905b808211156200015e57600080820160006101000a81549073ffffffffffffffffffffffffffffffffffffffff02191690556001820160006101000a81549073ffffffffffffffffffffffffffffffffffffffff02191690556002820160009055600382016000905560048201600062000142919062000165565b60058201600062000154919062000165565b50600601620000c8565b5090565b90565b508054600082559060005260206000209081019062000185919062000188565b50565b620001ad91905b80821115620001a95760008160009055506001016200018f565b5090565b90565b61240d80620001c06000396000f3006060604052600436106100ba576000357c0100000000000000000000000000000000000000000000000000000000900463ffffffff16806302b3fe54146100bc5780631e83409a1461011257806327f5b1cd1461014b5780636a256b29146101985780637fa240e2146101d15780637fd0bb591461022657806386e3064b146102ca578063890cb4e61461031b578063adb4884d1461039d578063ba25b1b314610409578063cebe0e2b14610456578063f9a44e17146104ef575b005b34156100c757600080fd5b6100fc600480803573ffffffffffffffffffffffffffffffffffffffff16906020019091908035906020019091905050610593565b6040518082815260200191505060405180910390f35b341561011d57600080fd5b610149600480803573ffffffffffffffffffffffffffffffffffffffff169060200190919050506105c4565b005b341561015657600080fd5b610182600480803573ffffffffffffffffffffffffffffffffffffffff169060200190919050506106a0565b6040518082815260200191505060405180910390f35b34156101a357600080fd5b6101cf600480803573ffffffffffffffffffffffffffffffffffffffff169060200190919050506106b8565b005b34156101dc57600080fd5b6101e4611366565b604051808273ffffffffffffffffffffffffffffffffffffffff1673ffffffffffffffffffffffffffffffffffffffff16815260200191505060405180910390f35b341561023157600080fd5b6102c8600480803573ffffffffffffffffffffffffffffffffffffffff1690602001909190803573ffffffffffffffffffffffffffffffffffffffff1690602001909190803590602001908201803590602001908080601f0160208091040260200160405190810160405280939291908181526020018383808284378201915050505050509190803590602001909190505061138c565b005b34156102d557600080fd5b610301600480803573ffffffffffffffffffffffffffffffffffffffff169060200190919050506114bb565b604051808215151515815260200191505060405180910390f35b341561032657600080fd5b61039b600480803573ffffffffffffffffffffffffffffffffffffffff1690602001909190803573ffffffffffffffffffffffffffffffffffffffff1690602001909190803573ffffffffffffffffffffffffffffffffffffffff169060200190919080351515906020019091905050611615565b005b34156103a857600080fd5b6103f3600480803573ffffffffffffffffffffffffffffffffffffffff1690602001909190803573ffffffffffffffffffffffffffffffffffffffff169060200190919050506119f6565b6040518082815260200191505060405180910390f35b341561041457600080fd5b610440600480803573ffffffffffffffffffffffffffffffffffffffff16906020019091905050611a1b565b6040518082815260200191505060405180910390f35b6104ed600480803573ffffffffffffffffffffffffffffffffffffffff1690602001909190803573ffffffffffffffffffffffffffffffffffffffff1690602001909190803590602001908201803590602001908080601f01602080910402602001604051908101604052809392919081815260200183838082843782019150505050505091908035906020019091905050611a33565b005b34156104fa57600080fd5b6105106004808035906020019091905050612068565b604051808573ffffffffffffffffffffffffffffffffffffffff1673ffffffffffffffffffffffffffffffffffffffff1681526020018473ffffffffffffffffffffffffffffffffffffffff1673ffffffffffffffffffffffffffffffffffffffff16815260200183815260200182815260200194505050505060405180910390f35b6002602052816000526040600020818154811015156105ae57fe5b9060005260206000209001600091509150505481565b6000600360008373ffffffffffffffffffffffffffffffffffffffff1673ffffffffffffffffffffffffffffffffffffffff16815260200190815260200160002054905060008111151561061757600080fd5b6000600360008473ffffffffffffffffffffffffffffffffffffffff1673ffffffffffffffffffffffffffffffffffffffff168152602001908152602001600020819055508173ffffffffffffffffffffffffffffffffffffffff166108fc829081150290604051600060405180830381858888f19350505050151561069c57600080fd5b5050565b60006020528060005260406000206000915090505481565b60008060008060008060008060008098505b600260008b73ffffffffffffffffffffffffffffffffffffffff1673ffffffffffffffffffffffffffffffffffffffff1681526020019081526020016000208054905089101561135a57600260008b73ffffffffffffffffffffffffffffffffffffffff1673ffffffffffffffffffffffffffffffffffffffff1681526020019081526020016000208981548110151561076057fe5b906000526020600020900154975062093a8060048981548110151561078157fe5b90600052602060002090600602016003015401421180156107a3575060008814155b1561134d576004888154811015156107b757fe5b906000526020600020906006020160000160009054906101000a900473ffffffffffffffffffffffffffffffffffffffff1696508673ffffffffffffffffffffffffffffffffffffffff1663fb6937de8b6000604051604001526040518263ffffffff167c0100000000000000000000000000000000000000000000000000000000028152600401808273ffffffffffffffffffffffffffffffffffffffff1673ffffffffffffffffffffffffffffffffffffffff1681526020019150506040805180830381600087803b151561088d57600080fd5b6102c65a03f1151561089e57600080fd5b5050506040518051906020018051905080965081975050508486101515610d59576108cb888688036120e7565b600360008c73ffffffffffffffffffffffffffffffffffffffff1673ffffffffffffffffffffffffffffffffffffffff168152602001908152602001600020600082825401925050819055506064612710605a6000808e73ffffffffffffffffffffffffffffffffffffffff1673ffffffffffffffffffffffffffffffffffffffff16815260200190815260200160002054020181151561096857fe5b046000808c73ffffffffffffffffffffffffffffffffffffffff1673ffffffffffffffffffffffffffffffffffffffff16815260200190815260200160002081905550600093505b6004888154811015156109bf57fe5b906000526020600020906006020160040180549050841015610bd757655af3107a40006003600060048b8154811015156109f557fe5b906000526020600020906006020160040187815481101515610a1357fe5b906000526020600020900160009054906101000a900473ffffffffffffffffffffffffffffffffffffffff1673ffffffffffffffffffffffffffffffffffffffff1673ffffffffffffffffffffffffffffffffffffffff1681526020019081526020016000206000828254019250508190555060646107d0606260008060048d815481101515610a9f57fe5b906000526020600020906006020160040189815481101515610abd57fe5b906000526020600020900160009054906101000a900473ffffffffffffffffffffffffffffffffffffffff1673ffffffffffffffffffffffffffffffffffffffff1673ffffffffffffffffffffffffffffffffffffffff168152602001908152602001600020540201811515610b2f57fe5b0460008060048b815481101515610b4257fe5b906000526020600020906006020160040187815481101515610b6057fe5b906000526020600020900160009054906101000a900473ffffffffffffffffffffffffffffffffffffffff1673ffffffffffffffffffffffffffffffffffffffff1673ffffffffffffffffffffffffffffffffffffffff1681526020019081526020016000208190555083806001019450506109b0565b600092505b600488815481101515610beb57fe5b906000526020600020906006020160050180549050831015610d54576064605f60008060048c815481101515610c1d57fe5b906000526020600020906006020160050187815481101515610c3b57fe5b906000526020600020900160009054906101000a900473ffffffffffffffffffffffffffffffffffffffff1673ffffffffffffffffffffffffffffffffffffffff1673ffffffffffffffffffffffffffffffffffffffff1681526020019081526020016000205402811515610cac57fe5b0460008060048b815481101515610cbf57fe5b906000526020600020906006020160050186815481101515610cdd57fe5b906000526020600020900160009054906101000a900473ffffffffffffffffffffffffffffffffffffffff1673ffffffffffffffffffffffffffffffffffffffff1673ffffffffffffffffffffffffffffffffffffffff168152602001908152602001600020819055508280600101935050610bdc565b611193565b6064605a6000808d73ffffffffffffffffffffffffffffffffffffffff1673ffffffffffffffffffffffffffffffffffffffff1681526020019081526020016000205402811515610da657fe5b046000808c73ffffffffffffffffffffffffffffffffffffffff1673ffffffffffffffffffffffffffffffffffffffff16815260200190815260200160002081905550600091505b600488815481101515610dfd57fe5b90600052602060002090600602016005018054905082101561101557655af3107a40006003600060048b815481101515610e3357fe5b906000526020600020906006020160050185815481101515610e5157fe5b906000526020600020900160009054906101000a900473ffffffffffffffffffffffffffffffffffffffff1673ffffffffffffffffffffffffffffffffffffffff1673ffffffffffffffffffffffffffffffffffffffff1681526020019081526020016000206000828254019250508190555060646107d0606260008060048d815481101515610edd57fe5b906000526020600020906006020160050187815481101515610efb57fe5b906000526020600020900160009054906101000a900473ffffffffffffffffffffffffffffffffffffffff1673ffffffffffffffffffffffffffffffffffffffff1673ffffffffffffffffffffffffffffffffffffffff168152602001908152602001600020540201811515610f6d57fe5b0460008060048b815481101515610f8057fe5b906000526020600020906006020160050185815481101515610f9e57fe5b906000526020600020900160009054906101000a900473ffffffffffffffffffffffffffffffffffffffff1673ffffffffffffffffffffffffffffffffffffffff1673ffffffffffffffffffffffffffffffffffffffff168152602001908152602001600020819055508180600101925050610dee565b600090505b60048881548110151561102957fe5b906000526020600020906006020160040180549050811015611192576064605f60008060048c81548110151561105b57fe5b90600052602060002090600602016004018581548110151561107957fe5b906000526020600020900160009054906101000a900473ffffffffffffffffffffffffffffffffffffffff1673ffffffffffffffffffffffffffffffffffffffff1673ffffffffffffffffffffffffffffffffffffffff16815260200190815260200160002054028115156110ea57fe5b0460008060048b8154811015156110fd57fe5b90600052602060002090600602016004018481548110151561111b57fe5b906000526020600020900160009054906101000a900473ffffffffffffffffffffffffffffffffffffffff1673ffffffffffffffffffffffffffffffffffffffff1673ffffffffffffffffffffffffffffffffffffffff16815260200190815260200160002081905550808060010191505061101a565b5b600160008b73ffffffffffffffffffffffffffffffffffffffff1673ffffffffffffffffffffffffffffffffffffffff168152602001908152602001600020600060048a8154811015156111e357fe5b906000526020600020906006020160000160009054906101000a900473ffffffffffffffffffffffffffffffffffffffff1673ffffffffffffffffffffffffffffffffffffffff1673ffffffffffffffffffffffffffffffffffffffff16815260200190815260200160002060009055600260008b73ffffffffffffffffffffffffffffffffffffffff1673ffffffffffffffffffffffffffffffffffffffff1681526020019081526020016000208981548110151561129f57fe5b9060005260206000209001600090556004888154811015156112bd57fe5b9060005260206000209060060201600080820160006101000a81549073ffffffffffffffffffffffffffffffffffffffff02191690556001820160006101000a81549073ffffffffffffffffffffffffffffffffffffffff02191690556002820160009055600382016000905560048201600061133a9190612124565b60058201600061134a9190612124565b50505b88806001019950506106ca565b50505050505050505050565b600560009054906101000a900473ffffffffffffffffffffffffffffffffffffffff1681565b60008490508073ffffffffffffffffffffffffffffffffffffffff1663bf49d1208484876040518463ffffffff167c010000000000000000000000000000000000000000000000000000000002815260040180806020018481526020018373ffffffffffffffffffffffffffffffffffffffff1673ffffffffffffffffffffffffffffffffffffffff168152602001828103825285818151815260200191508051906020019080838360005b83811015611453578082015181840152602081019050611438565b50505050905090810190601f1680156114805780820380516001836020036101000a031916815260200191505b50945050505050600060405180830381600087803b15156114a057600080fd5b6102c65a03f115156114b157600080fd5b5050505050505050565b600080600090505b600260008473ffffffffffffffffffffffffffffffffffffffff1673ffffffffffffffffffffffffffffffffffffffff1681526020019081526020016000208054905081101561160a5762093a806004600260008673ffffffffffffffffffffffffffffffffffffffff1673ffffffffffffffffffffffffffffffffffffffff1681526020019081526020016000208381548110151561155f57fe5b90600052602060002090015481548110151561157757fe5b90600052602060002090600602016003015401421180156115ef57506000600260008573ffffffffffffffffffffffffffffffffffffffff1673ffffffffffffffffffffffffffffffffffffffff168152602001908152602001600020828154811015156115e157fe5b906000526020600020900154115b156115fd576000915061160f565b80806001019150506114c3565b600191505b50919050565b6000611620846114bb565b151561162b57600080fd5b8490508073ffffffffffffffffffffffffffffffffffffffff16635efcb1c68585856000808a73ffffffffffffffffffffffffffffffffffffffff1673ffffffffffffffffffffffffffffffffffffffff168152602001908152602001600020546040518563ffffffff167c0100000000000000000000000000000000000000000000000000000000028152600401808573ffffffffffffffffffffffffffffffffffffffff1673ffffffffffffffffffffffffffffffffffffffff1681526020018473ffffffffffffffffffffffffffffffffffffffff1673ffffffffffffffffffffffffffffffffffffffff16815260200183151515158152602001828152602001945050505050600060405180830381600087803b151561174e57600080fd5b6102c65a03f1151561175f57600080fd5b5050506000600160008573ffffffffffffffffffffffffffffffffffffffff1673ffffffffffffffffffffffffffffffffffffffff16815260200190815260200160002060008773ffffffffffffffffffffffffffffffffffffffff1673ffffffffffffffffffffffffffffffffffffffff168152602001908152602001600020541415156119ef5781156118f0576004600160008573ffffffffffffffffffffffffffffffffffffffff1673ffffffffffffffffffffffffffffffffffffffff16815260200190815260200160002060008773ffffffffffffffffffffffffffffffffffffffff1673ffffffffffffffffffffffffffffffffffffffff1681526020019081526020016000205481548110151561187957fe5b9060005260206000209060060201600401805480600101828161189c9190612145565b9160005260206000209001600086909190916101000a81548173ffffffffffffffffffffffffffffffffffffffff021916908373ffffffffffffffffffffffffffffffffffffffff160217905550506119ee565b6004600160008573ffffffffffffffffffffffffffffffffffffffff1673ffffffffffffffffffffffffffffffffffffffff16815260200190815260200160002060008773ffffffffffffffffffffffffffffffffffffffff1673ffffffffffffffffffffffffffffffffffffffff1681526020019081526020016000205481548110151561197b57fe5b9060005260206000209060060201600501805480600101828161199e9190612145565b9160005260206000209001600086909190916101000a81548173ffffffffffffffffffffffffffffffffffffffff021916908373ffffffffffffffffffffffffffffffffffffffff160217905550505b5b5050505050565b6001602052816000526040600020602052806000526040600020600091509150505481565b60036020528060005260406000206000915090505481565b6000611a3d612171565b611a46856114bb565b1515611a5157600080fd5b8591506000600160008773ffffffffffffffffffffffffffffffffffffffff1673ffffffffffffffffffffffffffffffffffffffff16815260200190815260200160002060008873ffffffffffffffffffffffffffffffffffffffff1673ffffffffffffffffffffffffffffffffffffffff168152602001908152602001600020541415611e9b57662386f26fc100003410151515611aef57600080fd5b85816000019073ffffffffffffffffffffffffffffffffffffffff16908173ffffffffffffffffffffffffffffffffffffffff168152505084816020019073ffffffffffffffffffffffffffffffffffffffff16908173ffffffffffffffffffffffffffffffffffffffff1681525050348160400181815250504281606001818152505060048054806001018281611b8791906121e0565b9160005260206000209060060201600083909190915060008201518160000160006101000a81548173ffffffffffffffffffffffffffffffffffffffff021916908373ffffffffffffffffffffffffffffffffffffffff16021790555060208201518160010160006101000a81548173ffffffffffffffffffffffffffffffffffffffff021916908373ffffffffffffffffffffffffffffffffffffffff16021790555060408201518160020155606082015181600301556080820151816004019080519060200190611c5b929190612212565b5060a0820151816005019080519060200190611c78929190612212565b50505050600160048054905003600160008773ffffffffffffffffffffffffffffffffffffffff1673ffffffffffffffffffffffffffffffffffffffff16815260200190815260200160002060008873ffffffffffffffffffffffffffffffffffffffff1673ffffffffffffffffffffffffffffffffffffffff16815260200190815260200160002081905550600260008673ffffffffffffffffffffffffffffffffffffffff1673ffffffffffffffffffffffffffffffffffffffff1681526020019081526020016000208054806001018281611d56919061229c565b91600052602060002090016000600160048054905003909190915055508173ffffffffffffffffffffffffffffffffffffffff1663bf49d1208585886040518463ffffffff167c010000000000000000000000000000000000000000000000000000000002815260040180806020018481526020018373ffffffffffffffffffffffffffffffffffffffff1673ffffffffffffffffffffffffffffffffffffffff168152602001828103825285818151815260200191508051906020019080838360005b83811015611e35578082015181840152602081019050611e1a565b50505050905090810190601f168015611e625780820380516001836020036101000a031916815260200191505b50945050505050600060405180830381600087803b1515611e8257600080fd5b6102c65a03f11515611e9357600080fd5b505050612060565b426004600160008873ffffffffffffffffffffffffffffffffffffffff1673ffffffffffffffffffffffffffffffffffffffff16815260200190815260200160002060008973ffffffffffffffffffffffffffffffffffffffff1673ffffffffffffffffffffffffffffffffffffffff16815260200190815260200160002054815481101515611f2757fe5b9060005260206000209060060201600301819055508173ffffffffffffffffffffffffffffffffffffffff1663bf49d1208585886040518463ffffffff167c010000000000000000000000000000000000000000000000000000000002815260040180806020018481526020018373ffffffffffffffffffffffffffffffffffffffff1673ffffffffffffffffffffffffffffffffffffffff168152602001828103825285818151815260200191508051906020019080838360005b83811015611ffe578082015181840152602081019050611fe3565b50505050905090810190601f16801561202b5780820380516001836020036101000a031916815260200191505b50945050505050600060405180830381600087803b151561204b57600080fd5b6102c65a03f1151561205c57600080fd5b5050505b505050505050565b60048181548110151561207757fe5b90600052602060002090600602016000915090508060000160009054906101000a900473ffffffffffffffffffffffffffffffffffffffff16908060010160009054906101000a900473ffffffffffffffffffffffffffffffffffffffff16908060020154908060030154905084565b600064e8d4a51000820266071afd498d000060048581548110151561210857fe5b9060005260206000209060060201600201540101905092915050565b508054600082559060005260206000209081019061214291906122c8565b50565b81548183558181151161216c5781836000526020600020918201910161216b91906122c8565b5b505050565b60c060405190810160405280600073ffffffffffffffffffffffffffffffffffffffff168152602001600073ffffffffffffffffffffffffffffffffffffffff16815260200160008152602001600081526020016121cd6122ed565b81526020016121da6122ed565b81525090565b81548183558181151161220d5760060281600602836000526020600020918201910161220c9190612301565b5b505050565b82805482825590600052602060002090810192821561228b579160200282015b8281111561228a5782518260006101000a81548173ffffffffffffffffffffffffffffffffffffffff021916908373ffffffffffffffffffffffffffffffffffffffff16021790555091602001919060010190612232565b5b509050612298919061239e565b5090565b8154818355818115116122c3578183600052602060002091820191016122c291906122c8565b5b505050565b6122ea91905b808211156122e65760008160009055506001016122ce565b5090565b90565b602060405190810160405280600081525090565b61239b91905b8082111561239757600080820160006101000a81549073ffffffffffffffffffffffffffffffffffffffff02191690556001820160006101000a81549073ffffffffffffffffffffffffffffffffffffffff02191690556002820160009055600382016000905560048201600061237e9190612124565b60058201600061238e9190612124565b50600601612307565b5090565b90565b6123de91905b808211156123da57600081816101000a81549073ffffffffffffffffffffffffffffffffffffffff0219169055506001016123a4565b5090565b905600a165627a7a723058203009b9ad11a0713ac7632e70a7224deb1c129bdbf8f7e7fa82478e689faf9fc10029",
  "source": "pragma solidity ^0.4.17;\nimport './Store.sol';\n\ncontract Escrow{\n \t// map user address with its credibility score: [0,1000]\n  mapping (address => uint256) public credibility;\n  // map reviewer, store with index in vettings array.\n  mapping (address => mapping(address => uint256)) public vettingIndex;\n  // map reviewer with a list of index for active reviews/vettings\n  mapping (address => uint[]) public activeVettingIndexListByUser;\n  // map user with claimable reward\n  mapping (address => uint256) public settlements;\n  // NOTE:non-empty vettings starts at index 1 !!\n  Vetting[] public vettings;\n  \n  address public storeRegistry;\n\n  struct Vetting{\n    address store;\n    address reviewer;\n    uint256 deposit;\n    uint256 last_update;\n    address[] upvoters;\n    address[] downvoters;\n  }\n\n  /*\n\t* Constructor\n  */\n  function Escrow(address _registry) public {\n    storeRegistry = _registry;\n    // vettings starts at index 1\n    vettings.length ++;\n  }\n\n  /*\n  * Fallback Functions\n  */\n  function () public\n    payable {\n      \n  }\n  \n  /*\n  * Public Functions\n  */\n\n  function review(address _store, address _reviewer, string _comment, uint256 _score)\n    public\n    payable {\n      require(noMaturedVetting(_reviewer));\n      // if store doesn't exist, if statement would fail and state will revert.\n      Store store = Store(_store);\n      \n      if (vettingIndex[_reviewer][_store] == 0){\n      \t// If user send with deposit no less than 0.01 ETH, it will be considered as participating in \n      \t// peer-review phase which counts them eligible for reward based on votes.\n      \t// Otherwise, it would just be a normal review.\n        require(msg.value >= 10000000000000000);\n\n        Vetting memory newVetting;\n        newVetting.store = _store;\n        newVetting.reviewer = _reviewer;\n        newVetting.deposit = msg.value;\n        newVetting.last_update = block.timestamp;\n\n        vettings.push(newVetting);\n        vettingIndex[_reviewer][_store] = vettings.length-1;\n        activeVettingIndexListByUser[_reviewer].push(vettings.length-1);\n        \n        store.addReview(_comment, _score, _reviewer);\n       \n      } else {\n        // update already submitted review within vetting period and post-vetting\n        vettings[vettingIndex[_reviewer][_store]].last_update = block.timestamp;\n        store.addReview(_comment, _score, _reviewer);\n      }\n  }\n\n  // For reviews that doesn't wish to participate in vetting process.\n  function noVettingReview (address _store, address _reviewer, string _comment, uint256 _score) \n    public {\n      Store store = Store(_store);\n      store.addReview(_comment, _score, _reviewer);\n  }\n  \n\n  function vote(address _store, address _voter, address _reviewer, bool _is_upvote) \n  \tpublic {\n      require(noMaturedVetting(_voter));\n      // NOTE: this version of contract doesn't reward voter.\n\t    Store store = Store(_store);\n      store.voteReview(_voter, _reviewer, _is_upvote, credibility[_voter]);\n      // if the review being voted is still in vetting period, include for settlement\n      if (vettingIndex[_reviewer][_store] != 0){\n        if (_is_upvote){\n          vettings[vettingIndex[_reviewer][_store]].upvoters.push(_voter);\n        } else {\n          vettings[vettingIndex[_reviewer][_store]].downvoters.push(_voter);\n        }\n      }\n  }\n\n  function settle(address _reviewer) public{\n  \t// inspecting all active reviews of this reviewer\n  \tfor (uint i=0; i<activeVettingIndexListByUser[_reviewer].length; i++){\n      uint256 index = activeVettingIndexListByUser[_reviewer][i];\n\n  \t\tif (now > vettings[index].last_update + 7 days && index != 0){\n  \t\t\t// if the active period (7 days) has passed, then finalized and settled the reward.\n        // reward consists of the original deposit from reviewer + base reward 0.001 ether +\n        Store store = Store(vettings[index].store);\n        uint256 positive_impact;\n        uint256 negative_impact;\n        (positive_impact, negative_impact) = store.getImpact(_reviewer);\n        if (positive_impact >= negative_impact){\n          // settle for reviewer\n          settlements[_reviewer] += calculateReward(index, positive_impact - negative_impact);\n          credibility[_reviewer] = (credibility[_reviewer]*90 + 10000)/100;\n          // settle for voters\n          for (uint j=0; j<vettings[index].upvoters.length; j++){\n            // fixed reward of 0.0001 ether, 2% increase in credibility\n            settlements[vettings[index].upvoters[j]] += 100000000000000;\n            credibility[vettings[index].upvoters[j]] = (credibility[vettings[index].upvoters[j]]*98 + 2000)/100;\n          }\n          for (uint k=0; k<vettings[index].downvoters.length; k++){\n            // loss of 5% credibility in case of unpopular vote\n            credibility[vettings[index].downvoters[k]] = credibility[vettings[index].downvoters[k]]*95/100;\n          }\n        } else {\n          // settle for reviewer\n          // settlements doesn't change (i.e. no reward, lose initial deposit)\n          // credibility of reviewer drop to 0.9 of its original value.\n          credibility[_reviewer] = (credibility[_reviewer]*90)/100;\n          // settle for voters\n          for (uint l=0; l<vettings[index].downvoters.length; l++){\n            // fixed reward of 0.0001 ether, 2% increase in credibility\n            settlements[vettings[index].downvoters[l]] += 100000000000000;\n            credibility[vettings[index].downvoters[l]] = (credibility[vettings[index].downvoters[l]]*98 + 2000)/100;\n          }\n          for (uint m=0; m<vettings[index].upvoters.length; m++){\n            // loss of 5% credibility in case of unpopular vote\n            credibility[vettings[index].upvoters[m]] = credibility[vettings[index].upvoters[m]]*95/100;\n          }\n        }\n        // delete this settled review from active list\n        delete vettingIndex[_reviewer][vettings[index].store];\n        delete activeVettingIndexListByUser[_reviewer][i];\n        delete vettings[index];\n  \t\t}\n  \t}\n  }\n\n  // reviewer could claim settements after calling settle function.\n  function claim (address _claimer) \n    public {\n      uint256 claimable = settlements[_claimer];\n      require(claimable > 0);\n      // set to zero first to prevent reentry.\n      settlements[_claimer] = 0;\n      _claimer.transfer(claimable);\n  }  \n\n  // make sure all finished active reviews are settled (i.e. credibility has been updated)\n  // before allowing further review or vote.\n  function noMaturedVetting(address _reviewer) \n    public \n    constant\n    returns (bool) { \n      for (uint i=0; i< activeVettingIndexListByUser[_reviewer].length; i++){\n        // every review has 7 days period for public to vote/vet\n        // within 7 days, they are active. \n        if (now > vettings[activeVettingIndexListByUser[_reviewer][i]].last_update + 7 days && activeVettingIndexListByUser[_reviewer][i] > 0){\n          return false;\n        }\n      }\n      return true;\n  }\n  \n  /*\n  * Internal Functions\n  */\n\n  function calculateReward (uint256 _index, uint256 _net_vote) \n    internal\n    returns(uint256) {\n      // if _is_positive is true, reward = initial deposit + base reward (0.002 ether) + _net_vote*(1/1000000) ether.\n      // otherwise, no reward, which for reviewer would a loss (initial deposit)\n      // NOTE: _net_vote/1000000 is likely to be zero. therefore, we use equivalent _net_vote*100 wei.\n      \n      return vettings[_index].deposit + 2000000000000000 + _net_vote*1000000000000;\n  }\n}",
  "sourcePath": "/home/alex/Desktop/dev/PeerReviewBackend/blockchain/contracts/Escrow.sol",
  "compiler": {
    "name": "solc",
    "version": "0.4.18+commit.9cf6e910.Emscripten.clang"
  },
  "schemaVersion": "1.0.1",
  "updatedAt": "2018-01-13T08:43:21.454Z"
}