{
  "contractName": "StoreRegistry",
  "abi": [
    {
      "constant": true,
      "inputs": [],
      "name": "escrowAddress",
      "outputs": [
        {
          "name": "",
          "type": "address"
        }
      ],
      "payable": false,
      "stateMutability": "view",
      "type": "function"
    },
    {
      "constant": false,
      "inputs": [
        {
          "name": "_placeID",
          "type": "string"
        }
      ],
      "name": "addStore",
      "outputs": [],
      "payable": false,
      "stateMutability": "nonpayable",
      "type": "function"
    },
    {
      "constant": true,
      "inputs": [
        {
          "name": "",
          "type": "bytes32"
        }
      ],
      "name": "registry",
      "outputs": [
        {
          "name": "",
          "type": "address"
        }
      ],
      "payable": false,
      "stateMutability": "view",
      "type": "function"
    },
    {
      "constant": true,
      "inputs": [
        {
          "name": "_placeID",
          "type": "string"
        }
      ],
      "name": "getStoreAddress",
      "outputs": [
        {
          "name": "",
          "type": "address"
        }
      ],
      "payable": false,
      "stateMutability": "view",
      "type": "function"
    },
    {
      "constant": true,
      "inputs": [
        {
          "name": "_placeID",
          "type": "string"
        }
      ],
      "name": "storeExist",
      "outputs": [
        {
          "name": "",
          "type": "bool"
        }
      ],
      "payable": false,
      "stateMutability": "view",
      "type": "function"
    },
    {
      "inputs": [],
      "payable": false,
      "stateMutability": "nonpayable",
      "type": "constructor"
    },
    {
      "anonymous": false,
      "inputs": [
        {
          "indexed": true,
          "name": "store_address",
          "type": "address"
        }
      ],
      "name": "LogStoreCreated",
      "type": "event"
    }
  ],
  "bytecode": "0x6060604052341561000f57600080fd5b60003061001a6100af565b808273ffffffffffffffffffffffffffffffffffffffff1673ffffffffffffffffffffffffffffffffffffffff168152602001915050604051809103906000f080151561006657600080fd5b905080600160006101000a81548173ffffffffffffffffffffffffffffffffffffffff021916908373ffffffffffffffffffffffffffffffffffffffff160217905550506100bf565b6040516125cd80611c6883390190565b611b9a806100ce6000396000f30060606040526004361061006d576000357c0100000000000000000000000000000000000000000000000000000000900463ffffffff1680630d5defa414610072578063662feffc146100c75780637ef502981461012457806396d122ea1461018b578063d78d149f14610228575b600080fd5b341561007d57600080fd5b61008561029d565b604051808273ffffffffffffffffffffffffffffffffffffffff1673ffffffffffffffffffffffffffffffffffffffff16815260200191505060405180910390f35b34156100d257600080fd5b610122600480803590602001908201803590602001908080601f016020809104026020016040519081016040528093929190818152602001838380828437820191505050505050919050506102c3565b005b341561012f57600080fd5b6101496004808035600019169060200190919050506105bf565b604051808273ffffffffffffffffffffffffffffffffffffffff1673ffffffffffffffffffffffffffffffffffffffff16815260200191505060405180910390f35b341561019657600080fd5b6101e6600480803590602001908201803590602001908080601f016020809104026020016040519081016040528093929190818152602001838380828437820191505050505050919050506105f2565b604051808273ffffffffffffffffffffffffffffffffffffffff1673ffffffffffffffffffffffffffffffffffffffff16815260200191505060405180910390f35b341561023357600080fd5b610283600480803590602001908201803590602001908080601f016020809104026020016040519081016040528093929190818152602001838380828437820191505050505050919050506106c1565b604051808215151515815260200191505060405180910390f35b600160009054906101000a900473ffffffffffffffffffffffffffffffffffffffff1681565b6000806000806002856000604051602001526040518082805190602001908083835b60208310151561030a57805182526020820191506020810190506020830392506102e5565b6001836020036101000a03801982511681845116808217855250505050505090500191505060206040518083038160008661646e5a03f1151561034c57600080fd5b5050604051805190506000191660001916815260200190815260200160002060009054906101000a900473ffffffffffffffffffffffffffffffffffffffff1673ffffffffffffffffffffffffffffffffffffffff161415156103ae57600080fd5b81600160009054906101000a900473ffffffffffffffffffffffffffffffffffffffff166103da6107b9565b80806020018373ffffffffffffffffffffffffffffffffffffffff1673ffffffffffffffffffffffffffffffffffffffff168152602001828103825284818151815260200191508051906020019080838360005b8381101561044957808201518184015260208101905061042e565b50505050905090810190601f1680156104765780820380516001836020036101000a031916815260200191505b509350505050604051809103906000f080151561049257600080fd5b9050806000806002856000604051602001526040518082805190602001908083835b6020831015156104d957805182526020820191506020810190506020830392506104b4565b6001836020036101000a03801982511681845116808217855250505050505090500191505060206040518083038160008661646e5a03f1151561051b57600080fd5b5050604051805190506000191660001916815260200190815260200160002060006101000a81548173ffffffffffffffffffffffffffffffffffffffff021916908373ffffffffffffffffffffffffffffffffffffffff1602179055508073ffffffffffffffffffffffffffffffffffffffff167fd1ae21c089a795731641d60519bb7494c52508e75fe0ff85d9e5350e1c9ef69060405160405180910390a25050565b60006020528060005260406000206000915054906101000a900473ffffffffffffffffffffffffffffffffffffffff1681565b60008060006002846000604051602001526040518082805190602001908083835b6020831015156106385780518252602082019150602081019050602083039250610613565b6001836020036101000a03801982511681845116808217855250505050505090500191505060206040518083038160008661646e5a03f1151561067a57600080fd5b5050604051805190506000191660001916815260200190815260200160002060009054906101000a900473ffffffffffffffffffffffffffffffffffffffff169050919050565b6000806000806002856000604051602001526040518082805190602001908083835b60208310151561070857805182526020820191506020810190506020830392506106e3565b6001836020036101000a03801982511681845116808217855250505050505090500191505060206040518083038160008661646e5a03f1151561074a57600080fd5b5050604051805190506000191660001916815260200190815260200160002060009054906101000a900473ffffffffffffffffffffffffffffffffffffffff1673ffffffffffffffffffffffffffffffffffffffff1614156107af57600090506107b4565b600190505b919050565b6040516113a5806107ca833901905600606060405234156200001057600080fd5b604051620013a5380380620013a5833981016040528080518201919060200180519060200190919050508160009080519060200190620000529291906200009c565b5080600660006101000a81548173ffffffffffffffffffffffffffffffffffffffff021916908373ffffffffffffffffffffffffffffffffffffffff16021790555050506200014b565b828054600181600116156101000203166002900490600052602060002090601f016020900481019282601f10620000df57805160ff191683800117855562000110565b8280016001018555821562000110579182015b828111156200010f578251825591602001919060010190620000f2565b5b5090506200011f919062000123565b5090565b6200014891905b80821115620001445760008160009055506001016200012a565b5090565b90565b61124a806200015b6000396000f3006060604052600436106100a4576000357c0100000000000000000000000000000000000000000000000000000000900463ffffffff16806301293fb6146100a95780630d5defa4146100d25780631f409e791461012757806346defcac146101745780635efcb1c6146102025780638f59c0661461026e578063bf49d120146102de578063c006719f14610363578063fb6937de1461038c578063ffa590ae146103e0575b600080fd5b34156100b457600080fd5b6100bc6104f6565b6040518082815260200191505060405180910390f35b34156100dd57600080fd5b6100e56104fc565b604051808273ffffffffffffffffffffffffffffffffffffffff1673ffffffffffffffffffffffffffffffffffffffff16815260200191505060405180910390f35b341561013257600080fd5b61015e600480803573ffffffffffffffffffffffffffffffffffffffff16906020019091905050610522565b6040518082815260200191505060405180910390f35b341561017f57600080fd5b61018761053a565b6040518080602001828103825283818151815260200191508051906020019080838360005b838110156101c75780820151818401526020810190506101ac565b50505050905090810190601f1680156101f45780820380516001836020036101000a031916815260200191505b509250505060405180910390f35b341561020d57600080fd5b61026c600480803573ffffffffffffffffffffffffffffffffffffffff1690602001909190803573ffffffffffffffffffffffffffffffffffffffff1690602001909190803515159060200190919080359060200190919050506105d8565b005b341561027957600080fd5b6102c4600480803573ffffffffffffffffffffffffffffffffffffffff1690602001909190803573ffffffffffffffffffffffffffffffffffffffff169060200190919050506109fb565b604051808215151515815260200191505060405180910390f35b34156102e957600080fd5b610361600480803590602001908201803590602001908080601f0160208091040260200160405190810160405280939291908181526020018383808284378201915050505050509190803590602001909190803573ffffffffffffffffffffffffffffffffffffffff16906020019091905050610a2a565b005b341561036e57600080fd5b610376610e35565b6040518082815260200191505060405180910390f35b341561039757600080fd5b6103c3600480803573ffffffffffffffffffffffffffffffffffffffff16906020019091905050610e3b565b604051808381526020018281526020019250505060405180910390f35b34156103eb57600080fd5b6104016004808035906020019091905050610f0d565b60405180806020018981526020018873ffffffffffffffffffffffffffffffffffffffff1673ffffffffffffffffffffffffffffffffffffffff16815260200187815260200186815260200185815260200184815260200183815260200182810382528a8181546001816001161561010002031660029004815260200191508054600181600116156101000203166002900480156104e05780601f106104b5576101008083540402835291602001916104e0565b820191906000526020600020905b8154815290600101906020018083116104c357829003601f168201915b5050995050505050505050505060405180910390f35b60025481565b600660009054906101000a900473ffffffffffffffffffffffffffffffffffffffff1681565b60046020528060005260406000206000915090505481565b60008054600181600116156101000203166002900480601f0160208091040260200160405190810160405280929190818152602001828054600181600116156101000203166002900480156105d05780601f106105a5576101008083540402835291602001916105d0565b820191906000526020600020905b8154815290600101906020018083116105b357829003601f168201915b505050505081565b600660009054906101000a900473ffffffffffffffffffffffffffffffffffffffff1673ffffffffffffffffffffffffffffffffffffffff163373ffffffffffffffffffffffffffffffffffffffff1614151561063457600080fd5b83836000600460008373ffffffffffffffffffffffffffffffffffffffff1673ffffffffffffffffffffffffffffffffffffffff168152602001908152602001600020541415151561068557600080fd5b60001515600560008473ffffffffffffffffffffffffffffffffffffffff1673ffffffffffffffffffffffffffffffffffffffff16815260200190815260200160002060008373ffffffffffffffffffffffffffffffffffffffff1673ffffffffffffffffffffffffffffffffffffffff16815260200190815260200160002060009054906101000a900460ff16151514151561072157600080fd5b6001600560008873ffffffffffffffffffffffffffffffffffffffff1673ffffffffffffffffffffffffffffffffffffffff16815260200190815260200160002060008773ffffffffffffffffffffffffffffffffffffffff1673ffffffffffffffffffffffffffffffffffffffff16815260200190815260200160002060006101000a81548160ff02191690831515021790555083156108a557600160036001600460008973ffffffffffffffffffffffffffffffffffffffff1673ffffffffffffffffffffffffffffffffffffffff168152602001908152602001600020540381548110151561080f57fe5b9060005260206000209060080201600301600082825401925050819055506064830160036001600460008973ffffffffffffffffffffffffffffffffffffffff1673ffffffffffffffffffffffffffffffffffffffff168152602001908152602001600020540381548110151561088257fe5b90600052602060002090600802016006016000828254019250508190555061098a565b600160036001600460008973ffffffffffffffffffffffffffffffffffffffff1673ffffffffffffffffffffffffffffffffffffffff16815260200190815260200160002054038154811015156108f857fe5b9060005260206000209060080201600401600082825401925050819055506064830160036001600460008973ffffffffffffffffffffffffffffffffffffffff1673ffffffffffffffffffffffffffffffffffffffff168152602001908152602001600020540381548110151561096b57fe5b9060005260206000209060080201600701600082825401925050819055505b8473ffffffffffffffffffffffffffffffffffffffff168673ffffffffffffffffffffffffffffffffffffffff167f31aadc8a8c0d7d95a52025cdbcc6b42220e7d64eb6093122aa9ba2edc2f8682f86604051808215151515815260200191505060405180910390a3505050505050565b60056020528160005260406000206020528060005260406000206000915091509054906101000a900460ff1681565b610a32610f83565b600660009054906101000a900473ffffffffffffffffffffffffffffffffffffffff1673ffffffffffffffffffffffffffffffffffffffff163373ffffffffffffffffffffffffffffffffffffffff16141515610a8e57600080fd5b8260008110158015610aa1575060648111155b1515610aac57600080fd5b6000600460008573ffffffffffffffffffffffffffffffffffffffff1673ffffffffffffffffffffffffffffffffffffffff16815260200190815260200160002054141515610cae5760036001600460008673ffffffffffffffffffffffffffffffffffffffff1673ffffffffffffffffffffffffffffffffffffffff1681526020019081526020016000205403815481101515610b4657fe5b9060005260206000209060080201600101548460015401036001819055508460036001600460008773ffffffffffffffffffffffffffffffffffffffff1673ffffffffffffffffffffffffffffffffffffffff1681526020019081526020016000205403815481101515610bb657fe5b90600052602060002090600802016000019080519060200190610bda929190610fe5565b508360036001600460008773ffffffffffffffffffffffffffffffffffffffff1673ffffffffffffffffffffffffffffffffffffffff1681526020019081526020016000205403815481101515610c2d57fe5b9060005260206000209060080201600101819055504260036001600460008773ffffffffffffffffffffffffffffffffffffffff1673ffffffffffffffffffffffffffffffffffffffff1681526020019081526020016000205403815481101515610c9457fe5b906000526020600020906008020160050181905550610e2e565b60016002540160028190555083600154016001819055508482600001819052508382602001818152505082826040019073ffffffffffffffffffffffffffffffffffffffff16908173ffffffffffffffffffffffffffffffffffffffff1681525050428260a001818152505060038054806001018281610d2e9190611065565b916000526020600020906008020160008490919091506000820151816000019080519060200190610d60929190611097565b506020820151816001015560408201518160020160006101000a81548173ffffffffffffffffffffffffffffffffffffffff021916908373ffffffffffffffffffffffffffffffffffffffff160217905550606082015181600301556080820151816004015560a0820151816005015560c0820151816006015560e08201518160070155505050600254600460008573ffffffffffffffffffffffffffffffffffffffff1673ffffffffffffffffffffffffffffffffffffffff168152602001908152602001600020819055505b5050505050565b60015481565b60008060036001600460008673ffffffffffffffffffffffffffffffffffffffff1673ffffffffffffffffffffffffffffffffffffffff1681526020019081526020016000205403815481101515610e8f57fe5b90600052602060002090600802016006015460036001600460008773ffffffffffffffffffffffffffffffffffffffff1673ffffffffffffffffffffffffffffffffffffffff1681526020019081526020016000205403815481101515610ef257fe5b90600052602060002090600802016007015491509150915091565b600381815481101515610f1c57fe5b906000526020600020906008020160009150905080600001908060010154908060020160009054906101000a900473ffffffffffffffffffffffffffffffffffffffff16908060030154908060040154908060050154908060060154908060070154905088565b61010060405190810160405280610f98611117565b815260200160008152602001600073ffffffffffffffffffffffffffffffffffffffff16815260200160008152602001600081526020016000815260200160008152602001600081525090565b828054600181600116156101000203166002900490600052602060002090601f016020900481019282601f1061102657805160ff1916838001178555611054565b82800160010185558215611054579182015b82811115611053578251825591602001919060010190611038565b5b509050611061919061112b565b5090565b815481835581811511611092576008028160080283600052602060002091820191016110919190611150565b5b505050565b828054600181600116156101000203166002900490600052602060002090601f016020900481019282601f106110d857805160ff1916838001178555611106565b82800160010185558215611106579182015b828111156111055782518255916020019190600101906110ea565b5b509050611113919061112b565b5090565b602060405190810160405280600081525090565b61114d91905b80821115611149576000816000905550600101611131565b5090565b90565b6111d391905b808211156111cf576000808201600061116f91906111d6565b60018201600090556002820160006101000a81549073ffffffffffffffffffffffffffffffffffffffff02191690556003820160009055600482016000905560058201600090556006820160009055600782016000905550600801611156565b5090565b90565b50805460018160011615610100020316600290046000825580601f106111fc575061121b565b601f01602090049060005260206000209081019061121a919061112b565b5b505600a165627a7a72305820d858ad777dc6fd76163726702122dfb29e4e05e569f501ffc5735645661435c90029a165627a7a72305820fb9f0cae38ffa6a56f14c3077c09771b724e5f777ea25c0634717d896c053e220029606060405234156200001057600080fd5b604051602080620025cd8339810160405280805190602001909190505080600560006101000a81548173ffffffffffffffffffffffffffffffffffffffff021916908373ffffffffffffffffffffffffffffffffffffffff160217905550600480548091906001016200008491906200008c565b5050620001b0565b815481835581811511620000bc57600602816006028360005260206000209182019101620000bb9190620000c1565b5b505050565b6200016291905b808211156200015e57600080820160006101000a81549073ffffffffffffffffffffffffffffffffffffffff02191690556001820160006101000a81549073ffffffffffffffffffffffffffffffffffffffff02191690556002820160009055600382016000905560048201600062000142919062000165565b60058201600062000154919062000165565b50600601620000c8565b5090565b90565b508054600082559060005260206000209081019062000185919062000188565b50565b620001ad91905b80821115620001a95760008160009055506001016200018f565b5090565b90565b61240d80620001c06000396000f3006060604052600436106100ba576000357c0100000000000000000000000000000000000000000000000000000000900463ffffffff16806302b3fe54146100bc5780631e83409a1461011257806327f5b1cd1461014b5780636a256b29146101985780637fa240e2146101d15780637fd0bb591461022657806386e3064b146102ca578063890cb4e61461031b578063adb4884d1461039d578063ba25b1b314610409578063cebe0e2b14610456578063f9a44e17146104ef575b005b34156100c757600080fd5b6100fc600480803573ffffffffffffffffffffffffffffffffffffffff16906020019091908035906020019091905050610593565b6040518082815260200191505060405180910390f35b341561011d57600080fd5b610149600480803573ffffffffffffffffffffffffffffffffffffffff169060200190919050506105c4565b005b341561015657600080fd5b610182600480803573ffffffffffffffffffffffffffffffffffffffff169060200190919050506106a0565b6040518082815260200191505060405180910390f35b34156101a357600080fd5b6101cf600480803573ffffffffffffffffffffffffffffffffffffffff169060200190919050506106b8565b005b34156101dc57600080fd5b6101e4611366565b604051808273ffffffffffffffffffffffffffffffffffffffff1673ffffffffffffffffffffffffffffffffffffffff16815260200191505060405180910390f35b341561023157600080fd5b6102c8600480803573ffffffffffffffffffffffffffffffffffffffff1690602001909190803573ffffffffffffffffffffffffffffffffffffffff1690602001909190803590602001908201803590602001908080601f0160208091040260200160405190810160405280939291908181526020018383808284378201915050505050509190803590602001909190505061138c565b005b34156102d557600080fd5b610301600480803573ffffffffffffffffffffffffffffffffffffffff169060200190919050506114bb565b604051808215151515815260200191505060405180910390f35b341561032657600080fd5b61039b600480803573ffffffffffffffffffffffffffffffffffffffff1690602001909190803573ffffffffffffffffffffffffffffffffffffffff1690602001909190803573ffffffffffffffffffffffffffffffffffffffff169060200190919080351515906020019091905050611615565b005b34156103a857600080fd5b6103f3600480803573ffffffffffffffffffffffffffffffffffffffff1690602001909190803573ffffffffffffffffffffffffffffffffffffffff169060200190919050506119f6565b6040518082815260200191505060405180910390f35b341561041457600080fd5b610440600480803573ffffffffffffffffffffffffffffffffffffffff16906020019091905050611a1b565b6040518082815260200191505060405180910390f35b6104ed600480803573ffffffffffffffffffffffffffffffffffffffff1690602001909190803573ffffffffffffffffffffffffffffffffffffffff1690602001909190803590602001908201803590602001908080601f01602080910402602001604051908101604052809392919081815260200183838082843782019150505050505091908035906020019091905050611a33565b005b34156104fa57600080fd5b6105106004808035906020019091905050612068565b604051808573ffffffffffffffffffffffffffffffffffffffff1673ffffffffffffffffffffffffffffffffffffffff1681526020018473ffffffffffffffffffffffffffffffffffffffff1673ffffffffffffffffffffffffffffffffffffffff16815260200183815260200182815260200194505050505060405180910390f35b6002602052816000526040600020818154811015156105ae57fe5b9060005260206000209001600091509150505481565b6000600360008373ffffffffffffffffffffffffffffffffffffffff1673ffffffffffffffffffffffffffffffffffffffff16815260200190815260200160002054905060008111151561061757600080fd5b6000600360008473ffffffffffffffffffffffffffffffffffffffff1673ffffffffffffffffffffffffffffffffffffffff168152602001908152602001600020819055508173ffffffffffffffffffffffffffffffffffffffff166108fc829081150290604051600060405180830381858888f19350505050151561069c57600080fd5b5050565b60006020528060005260406000206000915090505481565b60008060008060008060008060008098505b600260008b73ffffffffffffffffffffffffffffffffffffffff1673ffffffffffffffffffffffffffffffffffffffff1681526020019081526020016000208054905089101561135a57600260008b73ffffffffffffffffffffffffffffffffffffffff1673ffffffffffffffffffffffffffffffffffffffff1681526020019081526020016000208981548110151561076057fe5b906000526020600020900154975062093a8060048981548110151561078157fe5b90600052602060002090600602016003015401421180156107a3575060008814155b1561134d576004888154811015156107b757fe5b906000526020600020906006020160000160009054906101000a900473ffffffffffffffffffffffffffffffffffffffff1696508673ffffffffffffffffffffffffffffffffffffffff1663fb6937de8b6000604051604001526040518263ffffffff167c0100000000000000000000000000000000000000000000000000000000028152600401808273ffffffffffffffffffffffffffffffffffffffff1673ffffffffffffffffffffffffffffffffffffffff1681526020019150506040805180830381600087803b151561088d57600080fd5b6102c65a03f1151561089e57600080fd5b5050506040518051906020018051905080965081975050508486101515610d59576108cb888688036120e7565b600360008c73ffffffffffffffffffffffffffffffffffffffff1673ffffffffffffffffffffffffffffffffffffffff168152602001908152602001600020600082825401925050819055506064612710605a6000808e73ffffffffffffffffffffffffffffffffffffffff1673ffffffffffffffffffffffffffffffffffffffff16815260200190815260200160002054020181151561096857fe5b046000808c73ffffffffffffffffffffffffffffffffffffffff1673ffffffffffffffffffffffffffffffffffffffff16815260200190815260200160002081905550600093505b6004888154811015156109bf57fe5b906000526020600020906006020160040180549050841015610bd757655af3107a40006003600060048b8154811015156109f557fe5b906000526020600020906006020160040187815481101515610a1357fe5b906000526020600020900160009054906101000a900473ffffffffffffffffffffffffffffffffffffffff1673ffffffffffffffffffffffffffffffffffffffff1673ffffffffffffffffffffffffffffffffffffffff1681526020019081526020016000206000828254019250508190555060646107d0606260008060048d815481101515610a9f57fe5b906000526020600020906006020160040189815481101515610abd57fe5b906000526020600020900160009054906101000a900473ffffffffffffffffffffffffffffffffffffffff1673ffffffffffffffffffffffffffffffffffffffff1673ffffffffffffffffffffffffffffffffffffffff168152602001908152602001600020540201811515610b2f57fe5b0460008060048b815481101515610b4257fe5b906000526020600020906006020160040187815481101515610b6057fe5b906000526020600020900160009054906101000a900473ffffffffffffffffffffffffffffffffffffffff1673ffffffffffffffffffffffffffffffffffffffff1673ffffffffffffffffffffffffffffffffffffffff1681526020019081526020016000208190555083806001019450506109b0565b600092505b600488815481101515610beb57fe5b906000526020600020906006020160050180549050831015610d54576064605f60008060048c815481101515610c1d57fe5b906000526020600020906006020160050187815481101515610c3b57fe5b906000526020600020900160009054906101000a900473ffffffffffffffffffffffffffffffffffffffff1673ffffffffffffffffffffffffffffffffffffffff1673ffffffffffffffffffffffffffffffffffffffff1681526020019081526020016000205402811515610cac57fe5b0460008060048b815481101515610cbf57fe5b906000526020600020906006020160050186815481101515610cdd57fe5b906000526020600020900160009054906101000a900473ffffffffffffffffffffffffffffffffffffffff1673ffffffffffffffffffffffffffffffffffffffff1673ffffffffffffffffffffffffffffffffffffffff168152602001908152602001600020819055508280600101935050610bdc565b611193565b6064605a6000808d73ffffffffffffffffffffffffffffffffffffffff1673ffffffffffffffffffffffffffffffffffffffff1681526020019081526020016000205402811515610da657fe5b046000808c73ffffffffffffffffffffffffffffffffffffffff1673ffffffffffffffffffffffffffffffffffffffff16815260200190815260200160002081905550600091505b600488815481101515610dfd57fe5b90600052602060002090600602016005018054905082101561101557655af3107a40006003600060048b815481101515610e3357fe5b906000526020600020906006020160050185815481101515610e5157fe5b906000526020600020900160009054906101000a900473ffffffffffffffffffffffffffffffffffffffff1673ffffffffffffffffffffffffffffffffffffffff1673ffffffffffffffffffffffffffffffffffffffff1681526020019081526020016000206000828254019250508190555060646107d0606260008060048d815481101515610edd57fe5b906000526020600020906006020160050187815481101515610efb57fe5b906000526020600020900160009054906101000a900473ffffffffffffffffffffffffffffffffffffffff1673ffffffffffffffffffffffffffffffffffffffff1673ffffffffffffffffffffffffffffffffffffffff168152602001908152602001600020540201811515610f6d57fe5b0460008060048b815481101515610f8057fe5b906000526020600020906006020160050185815481101515610f9e57fe5b906000526020600020900160009054906101000a900473ffffffffffffffffffffffffffffffffffffffff1673ffffffffffffffffffffffffffffffffffffffff1673ffffffffffffffffffffffffffffffffffffffff168152602001908152602001600020819055508180600101925050610dee565b600090505b60048881548110151561102957fe5b906000526020600020906006020160040180549050811015611192576064605f60008060048c81548110151561105b57fe5b90600052602060002090600602016004018581548110151561107957fe5b906000526020600020900160009054906101000a900473ffffffffffffffffffffffffffffffffffffffff1673ffffffffffffffffffffffffffffffffffffffff1673ffffffffffffffffffffffffffffffffffffffff16815260200190815260200160002054028115156110ea57fe5b0460008060048b8154811015156110fd57fe5b90600052602060002090600602016004018481548110151561111b57fe5b906000526020600020900160009054906101000a900473ffffffffffffffffffffffffffffffffffffffff1673ffffffffffffffffffffffffffffffffffffffff1673ffffffffffffffffffffffffffffffffffffffff16815260200190815260200160002081905550808060010191505061101a565b5b600160008b73ffffffffffffffffffffffffffffffffffffffff1673ffffffffffffffffffffffffffffffffffffffff168152602001908152602001600020600060048a8154811015156111e357fe5b906000526020600020906006020160000160009054906101000a900473ffffffffffffffffffffffffffffffffffffffff1673ffffffffffffffffffffffffffffffffffffffff1673ffffffffffffffffffffffffffffffffffffffff16815260200190815260200160002060009055600260008b73ffffffffffffffffffffffffffffffffffffffff1673ffffffffffffffffffffffffffffffffffffffff1681526020019081526020016000208981548110151561129f57fe5b9060005260206000209001600090556004888154811015156112bd57fe5b9060005260206000209060060201600080820160006101000a81549073ffffffffffffffffffffffffffffffffffffffff02191690556001820160006101000a81549073ffffffffffffffffffffffffffffffffffffffff02191690556002820160009055600382016000905560048201600061133a9190612124565b60058201600061134a9190612124565b50505b88806001019950506106ca565b50505050505050505050565b600560009054906101000a900473ffffffffffffffffffffffffffffffffffffffff1681565b60008490508073ffffffffffffffffffffffffffffffffffffffff1663bf49d1208484876040518463ffffffff167c010000000000000000000000000000000000000000000000000000000002815260040180806020018481526020018373ffffffffffffffffffffffffffffffffffffffff1673ffffffffffffffffffffffffffffffffffffffff168152602001828103825285818151815260200191508051906020019080838360005b83811015611453578082015181840152602081019050611438565b50505050905090810190601f1680156114805780820380516001836020036101000a031916815260200191505b50945050505050600060405180830381600087803b15156114a057600080fd5b6102c65a03f115156114b157600080fd5b5050505050505050565b600080600090505b600260008473ffffffffffffffffffffffffffffffffffffffff1673ffffffffffffffffffffffffffffffffffffffff1681526020019081526020016000208054905081101561160a5762093a806004600260008673ffffffffffffffffffffffffffffffffffffffff1673ffffffffffffffffffffffffffffffffffffffff1681526020019081526020016000208381548110151561155f57fe5b90600052602060002090015481548110151561157757fe5b90600052602060002090600602016003015401421180156115ef57506000600260008573ffffffffffffffffffffffffffffffffffffffff1673ffffffffffffffffffffffffffffffffffffffff168152602001908152602001600020828154811015156115e157fe5b906000526020600020900154115b156115fd576000915061160f565b80806001019150506114c3565b600191505b50919050565b6000611620846114bb565b151561162b57600080fd5b8490508073ffffffffffffffffffffffffffffffffffffffff16635efcb1c68585856000808a73ffffffffffffffffffffffffffffffffffffffff1673ffffffffffffffffffffffffffffffffffffffff168152602001908152602001600020546040518563ffffffff167c0100000000000000000000000000000000000000000000000000000000028152600401808573ffffffffffffffffffffffffffffffffffffffff1673ffffffffffffffffffffffffffffffffffffffff1681526020018473ffffffffffffffffffffffffffffffffffffffff1673ffffffffffffffffffffffffffffffffffffffff16815260200183151515158152602001828152602001945050505050600060405180830381600087803b151561174e57600080fd5b6102c65a03f1151561175f57600080fd5b5050506000600160008573ffffffffffffffffffffffffffffffffffffffff1673ffffffffffffffffffffffffffffffffffffffff16815260200190815260200160002060008773ffffffffffffffffffffffffffffffffffffffff1673ffffffffffffffffffffffffffffffffffffffff168152602001908152602001600020541415156119ef5781156118f0576004600160008573ffffffffffffffffffffffffffffffffffffffff1673ffffffffffffffffffffffffffffffffffffffff16815260200190815260200160002060008773ffffffffffffffffffffffffffffffffffffffff1673ffffffffffffffffffffffffffffffffffffffff1681526020019081526020016000205481548110151561187957fe5b9060005260206000209060060201600401805480600101828161189c9190612145565b9160005260206000209001600086909190916101000a81548173ffffffffffffffffffffffffffffffffffffffff021916908373ffffffffffffffffffffffffffffffffffffffff160217905550506119ee565b6004600160008573ffffffffffffffffffffffffffffffffffffffff1673ffffffffffffffffffffffffffffffffffffffff16815260200190815260200160002060008773ffffffffffffffffffffffffffffffffffffffff1673ffffffffffffffffffffffffffffffffffffffff1681526020019081526020016000205481548110151561197b57fe5b9060005260206000209060060201600501805480600101828161199e9190612145565b9160005260206000209001600086909190916101000a81548173ffffffffffffffffffffffffffffffffffffffff021916908373ffffffffffffffffffffffffffffffffffffffff160217905550505b5b5050505050565b6001602052816000526040600020602052806000526040600020600091509150505481565b60036020528060005260406000206000915090505481565b6000611a3d612171565b611a46856114bb565b1515611a5157600080fd5b8591506000600160008773ffffffffffffffffffffffffffffffffffffffff1673ffffffffffffffffffffffffffffffffffffffff16815260200190815260200160002060008873ffffffffffffffffffffffffffffffffffffffff1673ffffffffffffffffffffffffffffffffffffffff168152602001908152602001600020541415611e9b57662386f26fc100003410151515611aef57600080fd5b85816000019073ffffffffffffffffffffffffffffffffffffffff16908173ffffffffffffffffffffffffffffffffffffffff168152505084816020019073ffffffffffffffffffffffffffffffffffffffff16908173ffffffffffffffffffffffffffffffffffffffff1681525050348160400181815250504281606001818152505060048054806001018281611b8791906121e0565b9160005260206000209060060201600083909190915060008201518160000160006101000a81548173ffffffffffffffffffffffffffffffffffffffff021916908373ffffffffffffffffffffffffffffffffffffffff16021790555060208201518160010160006101000a81548173ffffffffffffffffffffffffffffffffffffffff021916908373ffffffffffffffffffffffffffffffffffffffff16021790555060408201518160020155606082015181600301556080820151816004019080519060200190611c5b929190612212565b5060a0820151816005019080519060200190611c78929190612212565b50505050600160048054905003600160008773ffffffffffffffffffffffffffffffffffffffff1673ffffffffffffffffffffffffffffffffffffffff16815260200190815260200160002060008873ffffffffffffffffffffffffffffffffffffffff1673ffffffffffffffffffffffffffffffffffffffff16815260200190815260200160002081905550600260008673ffffffffffffffffffffffffffffffffffffffff1673ffffffffffffffffffffffffffffffffffffffff1681526020019081526020016000208054806001018281611d56919061229c565b91600052602060002090016000600160048054905003909190915055508173ffffffffffffffffffffffffffffffffffffffff1663bf49d1208585886040518463ffffffff167c010000000000000000000000000000000000000000000000000000000002815260040180806020018481526020018373ffffffffffffffffffffffffffffffffffffffff1673ffffffffffffffffffffffffffffffffffffffff168152602001828103825285818151815260200191508051906020019080838360005b83811015611e35578082015181840152602081019050611e1a565b50505050905090810190601f168015611e625780820380516001836020036101000a031916815260200191505b50945050505050600060405180830381600087803b1515611e8257600080fd5b6102c65a03f11515611e9357600080fd5b505050612060565b426004600160008873ffffffffffffffffffffffffffffffffffffffff1673ffffffffffffffffffffffffffffffffffffffff16815260200190815260200160002060008973ffffffffffffffffffffffffffffffffffffffff1673ffffffffffffffffffffffffffffffffffffffff16815260200190815260200160002054815481101515611f2757fe5b9060005260206000209060060201600301819055508173ffffffffffffffffffffffffffffffffffffffff1663bf49d1208585886040518463ffffffff167c010000000000000000000000000000000000000000000000000000000002815260040180806020018481526020018373ffffffffffffffffffffffffffffffffffffffff1673ffffffffffffffffffffffffffffffffffffffff168152602001828103825285818151815260200191508051906020019080838360005b83811015611ffe578082015181840152602081019050611fe3565b50505050905090810190601f16801561202b5780820380516001836020036101000a031916815260200191505b50945050505050600060405180830381600087803b151561204b57600080fd5b6102c65a03f1151561205c57600080fd5b5050505b505050505050565b60048181548110151561207757fe5b90600052602060002090600602016000915090508060000160009054906101000a900473ffffffffffffffffffffffffffffffffffffffff16908060010160009054906101000a900473ffffffffffffffffffffffffffffffffffffffff16908060020154908060030154905084565b600064e8d4a51000820266071afd498d000060048581548110151561210857fe5b9060005260206000209060060201600201540101905092915050565b508054600082559060005260206000209081019061214291906122c8565b50565b81548183558181151161216c5781836000526020600020918201910161216b91906122c8565b5b505050565b60c060405190810160405280600073ffffffffffffffffffffffffffffffffffffffff168152602001600073ffffffffffffffffffffffffffffffffffffffff16815260200160008152602001600081526020016121cd6122ed565b81526020016121da6122ed565b81525090565b81548183558181151161220d5760060281600602836000526020600020918201910161220c9190612301565b5b505050565b82805482825590600052602060002090810192821561228b579160200282015b8281111561228a5782518260006101000a81548173ffffffffffffffffffffffffffffffffffffffff021916908373ffffffffffffffffffffffffffffffffffffffff16021790555091602001919060010190612232565b5b509050612298919061239e565b5090565b8154818355818115116122c3578183600052602060002091820191016122c291906122c8565b5b505050565b6122ea91905b808211156122e65760008160009055506001016122ce565b5090565b90565b602060405190810160405280600081525090565b61239b91905b8082111561239757600080820160006101000a81549073ffffffffffffffffffffffffffffffffffffffff02191690556001820160006101000a81549073ffffffffffffffffffffffffffffffffffffffff02191690556002820160009055600382016000905560048201600061237e9190612124565b60058201600061238e9190612124565b50600601612307565b5090565b90565b6123de91905b808211156123da57600081816101000a81549073ffffffffffffffffffffffffffffffffffffffff0219169055506001016123a4565b5090565b905600a165627a7a723058203009b9ad11a0713ac7632e70a7224deb1c129bdbf8f7e7fa82478e689faf9fc10029",
  "source": "pragma solidity ^0.4.17;\nimport './Store.sol';\nimport './Escrow.sol';\n\ncontract StoreRegistry{\n  mapping (bytes32 => address) public registry;\n  address public escrowAddress;\n\n  event LogStoreCreated(address indexed store_address);\n\n  /*\n\t* Constructor\n  */\n  function StoreRegistry(){\n  \t// Create global escrow which process votes and bets on all reviews in any store.\n    Escrow escrow = new Escrow(this);\n    escrowAddress = address(escrow);\n  }\n\n  /*\n\t* Public Functions\n  */\n\n  /// _placeID:unique identifier for each store based on Google Map PlaceID\n  function addStore(string _placeID) public {\n    require(registry[sha256(_placeID)] == 0x0);\n\n    Store newStore = new Store(_placeID, escrowAddress);\n    registry[sha256(_placeID)] = address(newStore);\n    LogStoreCreated(address(newStore));\n  }\n\n  function getStoreAddress(string _placeID)\n    public constant\n    returns (address){\n      return registry[sha256(_placeID)]; \n  }\n\n  function storeExist(string _placeID)\n    public constant\n    returns (bool){\n      if (registry[sha256(_placeID)] == 0x0){\n        return false;\n      } else {\n        return true;\n      }\n  }\n}\n",
  "sourcePath": "/home/alex/Desktop/dev/PeerReviewBackend/blockchain/contracts/StoreRegistry.sol",
  "compiler": {
    "name": "solc",
    "version": "0.4.18+commit.9cf6e910.Emscripten.clang"
  },
  "schemaVersion": "1.0.1",
  "updatedAt": "2018-01-13T08:43:21.467Z"
}