{
  "contractName": "Store",
  "abi": [
    {
      "constant": true,
      "inputs": [],
      "name": "totalReviewAmount",
      "outputs": [
        {
          "name": "",
          "type": "uint256"
        }
      ],
      "payable": false,
      "stateMutability": "view",
      "type": "function"
    },
    {
      "constant": true,
      "inputs": [],
      "name": "escrowAddress",
      "outputs": [
        {
          "name": "",
          "type": "address"
        }
      ],
      "payable": false,
      "stateMutability": "view",
      "type": "function"
    },
    {
      "constant": true,
      "inputs": [
        {
          "name": "",
          "type": "address"
        }
      ],
      "name": "reviewIndexPlusOneByReviewer",
      "outputs": [
        {
          "name": "",
          "type": "uint256"
        }
      ],
      "payable": false,
      "stateMutability": "view",
      "type": "function"
    },
    {
      "constant": true,
      "inputs": [],
      "name": "placeID",
      "outputs": [
        {
          "name": "",
          "type": "string"
        }
      ],
      "payable": false,
      "stateMutability": "view",
      "type": "function"
    },
    {
      "constant": false,
      "inputs": [
        {
          "name": "_voter",
          "type": "address"
        },
        {
          "name": "_reviewer",
          "type": "address"
        },
        {
          "name": "_is_upvote",
          "type": "bool"
        },
        {
          "name": "_credibility",
          "type": "uint256"
        }
      ],
      "name": "voteReview",
      "outputs": [],
      "payable": false,
      "stateMutability": "nonpayable",
      "type": "function"
    },
    {
      "constant": true,
      "inputs": [
        {
          "name": "",
          "type": "address"
        },
        {
          "name": "",
          "type": "address"
        }
      ],
      "name": "voted",
      "outputs": [
        {
          "name": "",
          "type": "bool"
        }
      ],
      "payable": false,
      "stateMutability": "view",
      "type": "function"
    },
    {
      "constant": false,
      "inputs": [
        {
          "name": "_comment",
          "type": "string"
        },
        {
          "name": "_score",
          "type": "uint256"
        },
        {
          "name": "_uploader",
          "type": "address"
        }
      ],
      "name": "addReview",
      "outputs": [],
      "payable": false,
      "stateMutability": "nonpayable",
      "type": "function"
    },
    {
      "constant": true,
      "inputs": [],
      "name": "totalScore",
      "outputs": [
        {
          "name": "",
          "type": "uint256"
        }
      ],
      "payable": false,
      "stateMutability": "view",
      "type": "function"
    },
    {
      "constant": true,
      "inputs": [
        {
          "name": "_reviewer",
          "type": "address"
        }
      ],
      "name": "getImpact",
      "outputs": [
        {
          "name": "",
          "type": "uint256"
        },
        {
          "name": "",
          "type": "uint256"
        }
      ],
      "payable": false,
      "stateMutability": "view",
      "type": "function"
    },
    {
      "constant": true,
      "inputs": [
        {
          "name": "",
          "type": "uint256"
        }
      ],
      "name": "allReviews",
      "outputs": [
        {
          "name": "comment",
          "type": "string"
        },
        {
          "name": "score",
          "type": "uint256"
        },
        {
          "name": "uploader",
          "type": "address"
        },
        {
          "name": "upvote",
          "type": "uint256"
        },
        {
          "name": "downvote",
          "type": "uint256"
        },
        {
          "name": "last_update",
          "type": "uint256"
        },
        {
          "name": "positive_impact",
          "type": "uint256"
        },
        {
          "name": "negative_impact",
          "type": "uint256"
        }
      ],
      "payable": false,
      "stateMutability": "view",
      "type": "function"
    },
    {
      "inputs": [
        {
          "name": "_placeID",
          "type": "string"
        },
        {
          "name": "_escrowAddress",
          "type": "address"
        }
      ],
      "payable": false,
      "stateMutability": "nonpayable",
      "type": "constructor"
    },
    {
      "anonymous": false,
      "inputs": [
        {
          "indexed": true,
          "name": "voter",
          "type": "address"
        },
        {
          "indexed": true,
          "name": "reviewer",
          "type": "address"
        },
        {
          "indexed": false,
          "name": "is_upvote",
          "type": "bool"
        }
      ],
      "name": "LogVoteAdded",
      "type": "event"
    }
  ],
  "bytecode": "0x606060405234156200001057600080fd5b604051620013a5380380620013a5833981016040528080518201919060200180519060200190919050508160009080519060200190620000529291906200009c565b5080600660006101000a81548173ffffffffffffffffffffffffffffffffffffffff021916908373ffffffffffffffffffffffffffffffffffffffff16021790555050506200014b565b828054600181600116156101000203166002900490600052602060002090601f016020900481019282601f10620000df57805160ff191683800117855562000110565b8280016001018555821562000110579182015b828111156200010f578251825591602001919060010190620000f2565b5b5090506200011f919062000123565b5090565b6200014891905b80821115620001445760008160009055506001016200012a565b5090565b90565b61124a806200015b6000396000f3006060604052600436106100a4576000357c0100000000000000000000000000000000000000000000000000000000900463ffffffff16806301293fb6146100a95780630d5defa4146100d25780631f409e791461012757806346defcac146101745780635efcb1c6146102025780638f59c0661461026e578063bf49d120146102de578063c006719f14610363578063fb6937de1461038c578063ffa590ae146103e0575b600080fd5b34156100b457600080fd5b6100bc6104f6565b6040518082815260200191505060405180910390f35b34156100dd57600080fd5b6100e56104fc565b604051808273ffffffffffffffffffffffffffffffffffffffff1673ffffffffffffffffffffffffffffffffffffffff16815260200191505060405180910390f35b341561013257600080fd5b61015e600480803573ffffffffffffffffffffffffffffffffffffffff16906020019091905050610522565b6040518082815260200191505060405180910390f35b341561017f57600080fd5b61018761053a565b6040518080602001828103825283818151815260200191508051906020019080838360005b838110156101c75780820151818401526020810190506101ac565b50505050905090810190601f1680156101f45780820380516001836020036101000a031916815260200191505b509250505060405180910390f35b341561020d57600080fd5b61026c600480803573ffffffffffffffffffffffffffffffffffffffff1690602001909190803573ffffffffffffffffffffffffffffffffffffffff1690602001909190803515159060200190919080359060200190919050506105d8565b005b341561027957600080fd5b6102c4600480803573ffffffffffffffffffffffffffffffffffffffff1690602001909190803573ffffffffffffffffffffffffffffffffffffffff169060200190919050506109fb565b604051808215151515815260200191505060405180910390f35b34156102e957600080fd5b610361600480803590602001908201803590602001908080601f0160208091040260200160405190810160405280939291908181526020018383808284378201915050505050509190803590602001909190803573ffffffffffffffffffffffffffffffffffffffff16906020019091905050610a2a565b005b341561036e57600080fd5b610376610e35565b6040518082815260200191505060405180910390f35b341561039757600080fd5b6103c3600480803573ffffffffffffffffffffffffffffffffffffffff16906020019091905050610e3b565b604051808381526020018281526020019250505060405180910390f35b34156103eb57600080fd5b6104016004808035906020019091905050610f0d565b60405180806020018981526020018873ffffffffffffffffffffffffffffffffffffffff1673ffffffffffffffffffffffffffffffffffffffff16815260200187815260200186815260200185815260200184815260200183815260200182810382528a8181546001816001161561010002031660029004815260200191508054600181600116156101000203166002900480156104e05780601f106104b5576101008083540402835291602001916104e0565b820191906000526020600020905b8154815290600101906020018083116104c357829003601f168201915b5050995050505050505050505060405180910390f35b60025481565b600660009054906101000a900473ffffffffffffffffffffffffffffffffffffffff1681565b60046020528060005260406000206000915090505481565b60008054600181600116156101000203166002900480601f0160208091040260200160405190810160405280929190818152602001828054600181600116156101000203166002900480156105d05780601f106105a5576101008083540402835291602001916105d0565b820191906000526020600020905b8154815290600101906020018083116105b357829003601f168201915b505050505081565b600660009054906101000a900473ffffffffffffffffffffffffffffffffffffffff1673ffffffffffffffffffffffffffffffffffffffff163373ffffffffffffffffffffffffffffffffffffffff1614151561063457600080fd5b83836000600460008373ffffffffffffffffffffffffffffffffffffffff1673ffffffffffffffffffffffffffffffffffffffff168152602001908152602001600020541415151561068557600080fd5b60001515600560008473ffffffffffffffffffffffffffffffffffffffff1673ffffffffffffffffffffffffffffffffffffffff16815260200190815260200160002060008373ffffffffffffffffffffffffffffffffffffffff1673ffffffffffffffffffffffffffffffffffffffff16815260200190815260200160002060009054906101000a900460ff16151514151561072157600080fd5b6001600560008873ffffffffffffffffffffffffffffffffffffffff1673ffffffffffffffffffffffffffffffffffffffff16815260200190815260200160002060008773ffffffffffffffffffffffffffffffffffffffff1673ffffffffffffffffffffffffffffffffffffffff16815260200190815260200160002060006101000a81548160ff02191690831515021790555083156108a557600160036001600460008973ffffffffffffffffffffffffffffffffffffffff1673ffffffffffffffffffffffffffffffffffffffff168152602001908152602001600020540381548110151561080f57fe5b9060005260206000209060080201600301600082825401925050819055506064830160036001600460008973ffffffffffffffffffffffffffffffffffffffff1673ffffffffffffffffffffffffffffffffffffffff168152602001908152602001600020540381548110151561088257fe5b90600052602060002090600802016006016000828254019250508190555061098a565b600160036001600460008973ffffffffffffffffffffffffffffffffffffffff1673ffffffffffffffffffffffffffffffffffffffff16815260200190815260200160002054038154811015156108f857fe5b9060005260206000209060080201600401600082825401925050819055506064830160036001600460008973ffffffffffffffffffffffffffffffffffffffff1673ffffffffffffffffffffffffffffffffffffffff168152602001908152602001600020540381548110151561096b57fe5b9060005260206000209060080201600701600082825401925050819055505b8473ffffffffffffffffffffffffffffffffffffffff168673ffffffffffffffffffffffffffffffffffffffff167f31aadc8a8c0d7d95a52025cdbcc6b42220e7d64eb6093122aa9ba2edc2f8682f86604051808215151515815260200191505060405180910390a3505050505050565b60056020528160005260406000206020528060005260406000206000915091509054906101000a900460ff1681565b610a32610f83565b600660009054906101000a900473ffffffffffffffffffffffffffffffffffffffff1673ffffffffffffffffffffffffffffffffffffffff163373ffffffffffffffffffffffffffffffffffffffff16141515610a8e57600080fd5b8260008110158015610aa1575060648111155b1515610aac57600080fd5b6000600460008573ffffffffffffffffffffffffffffffffffffffff1673ffffffffffffffffffffffffffffffffffffffff16815260200190815260200160002054141515610cae5760036001600460008673ffffffffffffffffffffffffffffffffffffffff1673ffffffffffffffffffffffffffffffffffffffff1681526020019081526020016000205403815481101515610b4657fe5b9060005260206000209060080201600101548460015401036001819055508460036001600460008773ffffffffffffffffffffffffffffffffffffffff1673ffffffffffffffffffffffffffffffffffffffff1681526020019081526020016000205403815481101515610bb657fe5b90600052602060002090600802016000019080519060200190610bda929190610fe5565b508360036001600460008773ffffffffffffffffffffffffffffffffffffffff1673ffffffffffffffffffffffffffffffffffffffff1681526020019081526020016000205403815481101515610c2d57fe5b9060005260206000209060080201600101819055504260036001600460008773ffffffffffffffffffffffffffffffffffffffff1673ffffffffffffffffffffffffffffffffffffffff1681526020019081526020016000205403815481101515610c9457fe5b906000526020600020906008020160050181905550610e2e565b60016002540160028190555083600154016001819055508482600001819052508382602001818152505082826040019073ffffffffffffffffffffffffffffffffffffffff16908173ffffffffffffffffffffffffffffffffffffffff1681525050428260a001818152505060038054806001018281610d2e9190611065565b916000526020600020906008020160008490919091506000820151816000019080519060200190610d60929190611097565b506020820151816001015560408201518160020160006101000a81548173ffffffffffffffffffffffffffffffffffffffff021916908373ffffffffffffffffffffffffffffffffffffffff160217905550606082015181600301556080820151816004015560a0820151816005015560c0820151816006015560e08201518160070155505050600254600460008573ffffffffffffffffffffffffffffffffffffffff1673ffffffffffffffffffffffffffffffffffffffff168152602001908152602001600020819055505b5050505050565b60015481565b60008060036001600460008673ffffffffffffffffffffffffffffffffffffffff1673ffffffffffffffffffffffffffffffffffffffff1681526020019081526020016000205403815481101515610e8f57fe5b90600052602060002090600802016006015460036001600460008773ffffffffffffffffffffffffffffffffffffffff1673ffffffffffffffffffffffffffffffffffffffff1681526020019081526020016000205403815481101515610ef257fe5b90600052602060002090600802016007015491509150915091565b600381815481101515610f1c57fe5b906000526020600020906008020160009150905080600001908060010154908060020160009054906101000a900473ffffffffffffffffffffffffffffffffffffffff16908060030154908060040154908060050154908060060154908060070154905088565b61010060405190810160405280610f98611117565b815260200160008152602001600073ffffffffffffffffffffffffffffffffffffffff16815260200160008152602001600081526020016000815260200160008152602001600081525090565b828054600181600116156101000203166002900490600052602060002090601f016020900481019282601f1061102657805160ff1916838001178555611054565b82800160010185558215611054579182015b82811115611053578251825591602001919060010190611038565b5b509050611061919061112b565b5090565b815481835581811511611092576008028160080283600052602060002091820191016110919190611150565b5b505050565b828054600181600116156101000203166002900490600052602060002090601f016020900481019282601f106110d857805160ff1916838001178555611106565b82800160010185558215611106579182015b828111156111055782518255916020019190600101906110ea565b5b509050611113919061112b565b5090565b602060405190810160405280600081525090565b61114d91905b80821115611149576000816000905550600101611131565b5090565b90565b6111d391905b808211156111cf576000808201600061116f91906111d6565b60018201600090556002820160006101000a81549073ffffffffffffffffffffffffffffffffffffffff02191690556003820160009055600482016000905560058201600090556006820160009055600782016000905550600801611156565b5090565b90565b50805460018160011615610100020316600290046000825580601f106111fc575061121b565b601f01602090049060005260206000209081019061121a919061112b565b5b505600a165627a7a72305820d858ad777dc6fd76163726702122dfb29e4e05e569f501ffc5735645661435c90029",
  "source": "pragma solidity ^0.4.17;\n\ncontract Store {\n\t// unique identifier for each store based on Google Map PlaceID\n  string public placeID;\n  uint256 public totalScore;\n  uint256 public totalReviewAmount;\n  Review[] public allReviews;\n  // map reviewer address with its index value in allReviews array +1\n  // as allReviews index starts with 0, and mapping is initialized with 0. \n  mapping (address => uint256) public reviewIndexPlusOneByReviewer;\n  // first address: voter; second address: reviewer\n  mapping (address => mapping (address => bool) ) public voted;\n  address public escrowAddress;\n  \n  struct Review {\n    string comment;\n    uint256 score;\n    address uploader;\n    uint256 upvote;\n    uint256 downvote;\n    uint256 last_update;\n    uint256 positive_impact;\n    uint256 negative_impact;\n  }\n\n  event LogVoteAdded(address indexed voter, address indexed reviewer, bool is_upvote);\n\n  modifier onlyEscrow(){\n    require(msg.sender == escrowAddress);\n    _;\n  }\n\n  modifier validScore(uint256 _score) {\n    require(_score >= 0 && _score <= 100);\n    _;\n  }\n\n  modifier validVote(address _voter, address _reviewer) {\n    require(reviewIndexPlusOneByReviewer[_reviewer] != 0); \n    require(voted[_voter][_reviewer] == false);\n    _; \n  }\n\n  /*\n\t* Constructor\n  */\n  function Store(string _placeID, address _escrowAddress) public {\n    placeID = _placeID;\n    escrowAddress = _escrowAddress;\n  }\n\n  /*\n\t* Public Functions\n  */\n  function addReview(string _comment, uint256 _score, address _uploader)\n    public\n    onlyEscrow\n    validScore(_score) {\n\n      if (reviewIndexPlusOneByReviewer[_uploader] != 0){\n      \t// update review\n      \t// NOTE: everytime a review gets updated, its last_update will be reset to extend \n      \t// the active period.\n        totalScore = totalScore + _score - allReviews[reviewIndexPlusOneByReviewer[_uploader] - 1].score;\n        allReviews[reviewIndexPlusOneByReviewer[_uploader] - 1].comment = _comment;\n        allReviews[reviewIndexPlusOneByReviewer[_uploader] - 1].score = _score;\n        allReviews[reviewIndexPlusOneByReviewer[_uploader] - 1].last_update = block.timestamp;\n      } else {\n      \t// add new review\n        totalReviewAmount = totalReviewAmount + 1;\n        totalScore = totalScore + _score;\n        Review memory new_review;\n\n        new_review.comment = _comment;\n        new_review.score = _score;\n        new_review.uploader = _uploader;\n        new_review.last_update = block.timestamp;\n        allReviews.push(new_review);\n        reviewIndexPlusOneByReviewer[_uploader] = totalReviewAmount;\n      }\n  }\n\n  function voteReview(address _voter, address _reviewer, bool _is_upvote, uint256 _credibility) \n    public\n    onlyEscrow\n    validVote(_voter, _reviewer) {\n\n      voted[_voter][_reviewer] = true;\n      \n      // increase all credibility score by 100 (on a scale of 1000)\n      // so that vote from new user whose credibility is 0, still amounts to meaningful vote.\n      if (_is_upvote){\n        allReviews[reviewIndexPlusOneByReviewer[_reviewer] - 1].upvote += 1;\n        allReviews[reviewIndexPlusOneByReviewer[_reviewer] - 1].positive_impact += (_credibility+100);\n      }\n      else{\n        allReviews[reviewIndexPlusOneByReviewer[_reviewer] - 1].downvote += 1;\n        allReviews[reviewIndexPlusOneByReviewer[_reviewer] - 1].negative_impact += (_credibility+100);\n      }\n      \n    LogVoteAdded(_voter, _reviewer, _is_upvote);\n  }\n\n  function getImpact (address _reviewer)\n    public\n    constant\n    returns(uint256, uint256) {\n    return (allReviews[reviewIndexPlusOneByReviewer[_reviewer]-1].positive_impact,\n      allReviews[reviewIndexPlusOneByReviewer[_reviewer]-1].negative_impact);\n  }\n  \n}\n",
  "sourcePath": "/home/alex/Desktop/dev/PeerReviewBackend/blockchain/contracts/Store.sol",
  "compiler": {
    "name": "solc",
    "version": "0.4.18+commit.9cf6e910.Emscripten.clang"
  },
  "schemaVersion": "1.0.1",
  "updatedAt": "2018-01-13T08:43:21.465Z"
}